:100000000C9462000C9463050C943C050C948A00DB
:100010000C948A000C948A000C948A000C948A0038
:100020000C948A000C948A000C948A000C948A0028
:100030000C948A000C948A000C948A000C948A0018
:100040000C94E5040C948A000C948A000C948A00A9
:100050000C948A000C948A000C948A000C948A00F8
:100060000C948A050C948A000000000024002700EC
:100070002A0000000000250028002B0004040404CE
:100080000404040402020202020203030303030342
:10009000020203010204081020408001020408103B
:1000A00020010204081020408040000000090003E5
:1000B000020000040508000000000000000000002D
:1000C0000000D80411241FBECFEFD8E0DEBFCDBFA3
:1000D00011E0A0E0B1E0ECE4FFE002C005900D9279
:1000E000A631B107D9F721E0A6E1B1E001C01D9228
:1000F000AE3DB207E1F710E0C2E6D0E004C02197C0
:10010000FE010E949E07C136D107C9F70E942F0544
:100110000C94A4070C9400008430B1F060F0883097
:10012000C9F08930E9F0853069F4E0E8F0E08081D9
:100130008F7D808308958230C9F0833021F484B5A7
:100140008F7D84BD08950895E0E8F0E080818F7789
:1001500080830895E0EBF0E080818F7780830895BD
:10016000E0EBF0E080818F7D8083089584B58F7708
:1001700084BD08951F93CF93DF93282F30E0F901BA
:10018000E655FF4F8491F901ED56FF4F1491F901A7
:10019000E458FF4FC491CC23A9F0D62F811116C08B
:1001A000EC2FF0E0EE0FFF1FEE58FF4FA591B4913A
:1001B0008FB7F894D1110DC09C91E12FE095E92300
:1001C000EC938FBFDF91CF911F9108950E948C0017
:1001D000E7CFEC91E12BEC93F4CFCF93DF9390E05A
:1001E000FC01ED56FF4F249184589F4FFC018491F0
:1001F000882319F190E0880F991FFC01E859FF4FFF
:10020000A591B491FC01EE58FF4FC591D49166239E
:1002100049F06230A9F08FB7F894EC91E22BEC939F
:100220008FBF0BC09FB7F8948C91E22FE0958E237F
:100230008C938881E823E8839FBFDF91CF91089555
:100240009FB7F8943C91822F809583238C93E8810B
:10025000E22BE8839FBFF1CF789484B5836084BD9F
:1002600085B5836085BDEEE6F0E0808181608083A6
:10027000E1E8F0E082E08083808181608083E0E8D3
:10028000F0E0808181608083E1EBF0E08081846038
:100290008083E0EBF0E080818160808387E8809359
:1002A0007A001092C10008950895823008F00895F0
:1002B000E82FF0E0EE0FFF1FE050FF4F71836083E7
:1002C000882319F0813059F00895E9E6F0E0808143
:1002D0008C7F482B40838DB381608DBB0895E9E608
:1002E000F0E08081837F440F551F440F551F482B3A
:1002F00040838DB382608DBBDACF0895FC016083AB
:1003000052874187128211828FEF9FEF94838383FC
:100310009683858310861782089585EC8093BC00B0
:100320001092CD01089585ED8093BC008091BC00B2
:1003300084FDFCCF1092CD010895811104C085E8A1
:100340008093BC00089585EC8093BC000895909341
:10035000A6018093A50108959093AA018093A90115
:100360000895AC012091A701260F3327331F2132B6
:100370003105F4F48091CD018430E1F490E00FC0B8
:10038000E091A701292F30E0E20FF32FF11D240F98
:10039000351FD9012C91EB57FE4F20839F5F961795
:1003A00078F38091A701680F6093A70180E008951A
:1003B00081E0089582E008950F93413208F049C02A
:1003C0009091CD019111FCCF92E09093CD010093DB
:1003D000CF019FEF9093CC017093D1016093D00136
:1003E0001092D3014093D2011092D40190E0880F73
:1003F000991F9091D401892B8093D4018091CE01D3
:100400008130B9F085EE8093BC00222321F08091E9
:10041000CD018230D1F38091CC018F3FE9F0809102
:10042000CC018032D9F08091CC01803381F084E01E
:1004300011C01092CE018091D4018093BB008091B5
:10044000BC0083FDF8CF85EC8093BC00DECF83E059
:1004500001C081E00F91089580E0FCCF82E0FACFE7
:10046000413208F03FC09091CD019111FCCF91E055
:100470009093CD012093CF012FEF2093CC01709367
:10048000D1016093D0011092D301240F2093D201A7
:100490009093D40190E0880F991F9091D401892BFB
:1004A0008093D4018091CE01813071F085EE8093EC
:1004B000BC008091CD018130E1F38091D30184179C
:1004C00098F48091D30108951092CE018091D401C7
:1004D0008093BB008091BC0083FDF8CF85EC8093B6
:1004E000BC00E7CF80E00895842F08959B01AC0104
:1004F00060E074E284EF90E00E947C0720513109B3
:100500004109510956954795379527952093B8008D
:1005100008951092CD0181E08093CF011092CE0119
:1005200061E082E10E94BA0061E083E10E94BA00CA
:10053000E9EBF0E080818E7F808380818D7F8083F6
:1005400088E48093B80085E48093BC000895089502
:1005500008950895E091760180917501E81730F4CF
:10056000F0E0EB5AFE4F808190E008958FEF9FEF0F
:1005700008959091760180917501981758F4E92FAC
:10058000F0E0EB5AFE4F208130E09F5F90937601C0
:10059000C90108952FEF3FEFFBCF80917501909136
:1005A0007601891B990B0895CF92DF92EF92FF920B
:1005B0000F931F93CF93DF938C016B017A0180918E
:1005C0005401882399F0D0E0C0E0CE15DF0590F407
:1005D000D801ED91FC910190F081E02DD601AC0F96
:1005E000BD1F6C91C80109952196EFCF642FC601FC
:1005F0000E94B101C701DF91CF911F910F91FF9030
:10060000EF90DF90CF900895CF93DF931F92CDB7F7
:10061000DEB7FC016983909154019923F1F0909128
:100620007701903250F081E090E09383828390E0F4
:1006300080E00F90DF91CF91089580917801E82FAD
:10064000F0E0EC5CFE4F998190838F5F809378019E
:100650008093770181E090E0ECCF61E0CE010196DC
:100660000E94B10181E090E0E4CF0F9340917701C7
:10067000062F21E064E371E0809133010E94DC01E8
:100680001092780110927701109254010F91089501
:1006900061E00E943503089581E0809354016093E6
:1006A000330110927801109277010895CF93DF9370
:1006B000EC017C836B83688189859A850E944C0359
:1006C00089859A856B81DC01ED91FC910190F08127
:1006D000E02D099589859A856C81DC01ED91FC916D
:1006E0000190F081E02D099589859A850E94480343
:1006F00090E098878F83DF91CF910895CF93DF9318
:10070000EC01688189859A850E944C0389859A85C8
:100710000E94480391E0811190E0892FDF91CF91F1
:100720000895EF92FF920F931F93CF938C017B015B
:100730000E947E03C82F811107C08C2FCF911F917B
:100740000F91FF90EF900895B701C8010E945603E2
:10075000F4CF8F929F92AF92BF92CF92DF92EF929F
:10076000FF920F931F93CF93DF93EC01D62EF42EBD
:1007700048015901E1101EC030E23F1518F4689499
:10078000FF24F5F82C2D4F2D65E571E08D2D0E948D
:1007900030021092760180937501DF91CF911F9105
:1007A0000F91FF90EF90DF90CF90BF90AF909F9010
:1007B0008F9008950E944C0323E02E1520F40F2EF5
:1007C000F3E0EF2EF02D1FEF1E0DEE20D9F0E881A3
:1007D000F9810190F081E02D812F90E0880F991F21
:1007E000880F991F880F991FA501940104C0569581
:1007F0004795379527958A95D2F7B901CE01099586
:10080000E12EE1CF60E0CE010E943503B5CFCF925B
:10081000EF920F931F93C22EE12C00E010E098019D
:100820000E94A9031F910F91EF90CF90089521E0AE
:100830000E9407040895CF93DF93EC0142E06881A2
:1008400089859A850E9417048230F9F489859A85F2
:10085000DC01ED91FC910284F385E02D09959A83EA
:10086000898389859A85DC01ED91FC910284F38569
:10087000E02D099520E0382F89819A81822B932BD6
:100880009A838983DF91CF91089582E890E09887D9
:100890008F8389819A81F6CFCB01BA010E947602BB
:1008A00008951092760110927501109278011092BD
:1008B00077010E94890287EA92E00E94A70188EAF4
:1008C00092E00E94AC010895FC011382128288EE2E
:1008D00093E0A0E0B0E084839583A683B78388E0AB
:1008E00091E0918380830895019709F008956F3F07
:1008F0007F4FE1F789E791E00E946404F7CF90E031
:1009000080E00895019709F008956F3F7F4FE1F768
:1009100049E751E067E288E291E00E947E0149E701
:1009200051E066E28DE191E00E947E01EDCF809181
:100930001C01811101C0089510921C0188E291E010
:100940000E941B04BC01609570958DE191E00E94AE
:100950005603F1CF89E791E00E94510440E85AE143
:1009600066E070E089E791E00E944C046FEF7FEF52
:1009700088E291E00E9491036FEF7FEF88E291E0BF
:100980000E9456036FEF7FEF8DE191E00E9491038B
:1009900062E082E00E94ED0042E050E064ED74E02D
:1009A00080E00E945501089581E080931C01089524
:1009B0006FEF7FEF81E090E00E9474046FEF7FEFB4
:1009C00081E090E00E94820408951F920F920FB67A
:1009D0000F9211242F933F938F939F93AF93BF93C5
:1009E0008091DA019091DB01A091DC01B091DD01F1
:1009F0003091D90123E0230F2D3758F50196A11D21
:100A0000B11D2093D9018093DA019093DB01A0936B
:100A1000DC01B093DD018091D5019091D601A091C8
:100A2000D701B091D8010196A11DB11D8093D501C8
:100A30009093D601A093D701B093D801BF91AF9105
:100A40009F918F913F912F910F900FBE0F901F900C
:100A5000189526E8230F0296A11DB11DD2CF0E9442
:100A60002C010E94AA040E94970480E090E0892B48
:100A7000D1F30E940000F7CF1F920F920FB60F9292
:100A800011242F933F934F935F936F937F938F9393
:100A90009F93AF93BF93EF93FF93E0910201F09187
:100AA00003010995FF91EF91BF91AF919F918F91B4
:100AB0007F916F915F914F913F912F910F900FBE5A
:100AC0000F901F9018951F920F920FB60F9211243E
:100AD0002F933F934F935F936F937F938F939F9346
:100AE000AF93BF93EF93FF93E0910001F091010169
:100AF0000995FF91EF91BF91AF919F918F917F9158
:100B00006F915F914F913F912F910F900FBE0F907A
:100B10001F9018951F920F920FB60F9211242F93CA
:100B20003F934F935F936F937F938F939F93AF9375
:100B3000BF93EF93FF93E091B900E87FE93C08F0A1
:100B4000D5C0F0E0EA55FA4F0C949E077707760679
:100B50007606760676067606760676066F067606BC
:100B60007606760676067606760676066F067606AC
:100B70007606760676067606760676068706760684
:100B8000760676067606760676067606B10676064A
:100B90007606760676067606760676068706760664
:100BA000760676067606760676067606B706760624
:100BB000760676067606760676067606BD0676060E
:100BC000760676067606760676067606D3067606E8
:100BD00076067606760676067606760601077606A9
:100BE000760676067606760676067606C3067606D8
:100BF000760676067606760676067606E1067606AA
:100C00007606760676067606760676060407760675
:100C10007606760676067606760676060407760665
:100C20007606760676067606760676060407760655
:100C30007606760676067606760676060407760645
:100C40007606760676067606760676060D0776062C
:100C50007606760676067606760676063E077606EB
:100C60007606760676067606760676060D0776060C
:100C70007606760676067606760676063E077606CB
:100C800076067606760676067606760625077606D4
:100C900076067606760676067606760642077606A7
:100CA0007606760676067606760676064207760697
:100CB0007606760676067606760676065707760672
:100CC0007606760676067606760676067107760648
:100CD00076067606760676067606760671078091A3
:100CE000D4018093BB0081E00E949D01FF91EF91B0
:100CF000BF91AF919F918F917F916F915F914F9134
:100D00003F912F910F900FBE0F901F9018959091CB
:100D1000D3018091D201981768F08091CF018111A1
:100D20001DC081E08093CE0184EA8093BC001092C4
:100D3000CD01DCCF8091D0019091D101E091D30120
:100D400021E02E0F2093D301E80FF92FF11D8081B0
:100D50008093BB0081E00E949D01C8CF0E94930157
:100D6000C5CF80E28093CC010E949301BFCF80E386
:100D70008093CC010E949301B9CF88E38093CC018A
:100D80000E948D01B3CF8091D0019091D101E0916B
:100D9000D30121E02E0F2093D301E80FF92FF11D8D
:100DA0008091BB0080839091D3018091D2019817EC
:100DB00020F481E00E949D0199CF80E00E949D0176
:100DC00095CF8091D0019091D101E091D30121E0A4
:100DD0002E0F2093D301E80FF92FF11D8091BB0056
:100DE00080838091CF01811109C081E08093CE0181
:100DF00084EA8093BC001092CD0178CF0E949301C9
:100E000075CF0E94930172CF83E08093CD01109241
:100E1000CB0181E00E949D0169CF8091CB0180329E
:100E200080F4E091CB0181E08E0F8093CB01F0E064
:100E30008091BB00E555FE4F808381E00E949D01BB
:100E400055CF80E00E949D0151CF0E948D0180917D
:100E5000CB01803230F4E091CB01F0E0E555FE4F5C
:100E600010826091CB0170E0E091A901F091AA019C
:100E70008BEA91E009951092CB0138CF80E00E9477
:100E80009D0134CF84E08093CD011092A80110928F
:100E9000A701E091A501F091A60109958091A70114
:100EA000811105C081E08093A70110928501E09136
:100EB000A80181E08E0F8093A801F0E0EB57FE4F70
:100EC00080818093BB009091A8018091A701981721
:100ED00020F481E00E949D0109CF80E00E949D01E5
:100EE00005CF81E00E949D011092CD01FFCE1092AE
:100EF000CC010E949301FACEA1E21A2EAA1BBB1BC1
:100F0000FD010DC0AA1FBB1FEE1FFF1FA217B307D5
:100F1000E407F50720F0A21BB30BE40BF50B661FEB
:100F2000771F881F991F1A9469F7609570958095AF
:100F300090959B01AC01BD01CF010895EE0FFF1FFD
:0C0F40000590F491E02D0994F894FFCF87
:100F4C007D010000000000000403D4027F04A9020C
:060F5C00CD02B902AA0259
:00000001FF
