:100000000C9467000C94F9030C94D2030C948F00A9
:100010000C948F000C948F000C948F000C948F0024
:100020000C948F000C948F000C948F000C948F0014
:100030000C948F000C948F000C948F000C948F0004
:100040000C9488030C948F000C9446040C942004A8
:100050000C948F000C948F000C948F000C948F00E4
:100060000C948F000C948F000000000023002600E9
:10007000290000000000240027002A0000000000E2
:10008000250028002B0004040404040404040202D4
:100090000202020203030303030302020301020438
:1000A00008102040800102040810200102040810FA
:1000B0002040804000000009000302000004050801
:1000C0000000000000000000000000004B051124AB
:1000D0001FBECFEFD8E0DEBFCDBF11E0A0E0B1E0A2
:1000E000E4E4FBE002C005900D92A632B107D9F717
:1000F00021E0A6E2B1E001C01D92AE3CB207E1F7FB
:1001000010E0C7E6D0E004C02197FE010E949A05E6
:10011000C636D107C9F70E9478040C94A0050C9448
:100120000000843081F028F48230E9F08330F9F067
:100130000895883071F0893091F08530B9F480915C
:1001400080008F7D03C0809180008F778093800036
:1001500008958091B0008F778093B00008958091CA
:10016000B0008F7DF9CF84B58F7784BD089584B5B5
:100170008F7DFBCF1F93CF93DF93282F30E0F901C2
:10018000EC54FF4F8491F901E356FF4FD491F901EC
:10019000EA57FF4FC491CC23A9F0162F81110E947A
:1001A0009100EC2FF0E0EE0FFF1FE458FF4FA591F8
:1001B000B4918FB7F894EC91111108C0D095DE235B
:1001C000DC938FBFDF91CF911F910895DE2BF8CF85
:1001D000CF93DF9390E0FC01E356FF4F24918A57C1
:1001E0009F4FFC0184918823D1F090E0880F991FE4
:1001F000FC01EE58FF4FA591B491FC01E458FF4F6C
:10020000C591D49161110EC09FB7F8948C91E22FE3
:10021000E0958E238C932881E223E8839FBFDF91B2
:10022000CF9108958FB7F894EC91E22BEC938FBFA8
:10023000F6CF3FB7F89480912D0190912E01A091B7
:100240002F01B091300126B5A89B05C02F3F19F0B2
:100250000196A11DB11D3FBFBA2FA92F982F882746
:10026000BC01CD01620F711D811D911D42E0660F21
:10027000771F881F991F4A95D1F708958F929F92F3
:10028000AF92BF92CF92DF92EF92FF924B015C014F
:100290000E9419016B017C010E9419016C197D09F2
:1002A0008E099F09683E734081059105A8F321E0FE
:1002B000821A9108A108B10888EEC80E83E0D81E02
:1002C000E11CF11C81149104A104B10429F7FF90F1
:1002D000EF90DF90CF90BF90AF909F908F90089558
:1002E0000895AF92BF92CF92DF92EF92FF920F9359
:1002F0001F93CF93DF936C017B018B01040F151FBC
:10030000EB015E01AE18BF08C017D10759F0699123
:10031000D601ED91FC910190F081E02DC601099587
:10032000892B79F7C501DF91CF911F910F91FF9034
:10033000EF90DF90CF90BF90AF900895FC01538D68
:10034000448D252F30E0842F90E0821B930B5417AF
:1003500010F0CF96089501970895FC01918D828D3C
:10036000981761F0A28DAE0FBF2FB11D5D968C91D5
:10037000928D9F5F9F73928F90E008958FEF9FEF14
:100380000895FC01918D828D981731F0828DE80FD0
:10039000F11D858D90E008958FEF9FEF0895FC018A
:1003A000918D228D892F90E0805C9F4F821B910957
:1003B0008F739927089581E391E00E94CF0121E096
:1003C000892B09F420E0822F089580E090E0892BAA
:1003D00029F00E94DB0181110C9400000895FC01BA
:1003E000A48DA80FB92FB11DA35ABF4F2C91848D96
:1003F00090E001968F739927848FA689B7892C93F3
:10040000A089B1898C91837080648C93938D848D45
:10041000981306C00288F389E02D80818F7D808348
:100420000895EF92FF920F931F93CF93DF93EC0108
:1004300081E0888F9B8D8C8D98131AC0E889F9898B
:10044000808185FF15C09FB7F894EE89FF8960838E
:10045000E889F98980818370806480839FBF81E00F
:1004600090E0DF91CF911F910F91FF90EF90089551
:10047000F62E0B8D10E00F5F1F4F0F731127E02E2C
:100480008C8D8E110CC00FB607FCFACFE889F98964
:10049000808185FFF5CFCE010E94EF01F1CFEB8D7A
:1004A000EC0FFD2FF11DE35AFF4FF0829FB7F89438
:1004B0000B8FEA89FB8980818062CFCFCF93DF9356
:1004C000EC01888D8823B9F0AA89BB89E889F9896C
:1004D0008C9185FD03C0808186FD0DC00FB607FCA1
:1004E000F7CF8C9185FFF2CF808185FFEDCFCE01D4
:1004F0000E94EF01E9CFDF91CF910895CF93DF9371
:10050000E7EBF0E08491E0EAF0E0D491E9E8F0E094
:10051000C491CC23D1F081110E949100EC2FF0E026
:10052000EE0FFF1FE859FF4FA591B491EC91ED2319
:1005300061F0809126019091270101969093270107
:1005400080932601DF91CF910895809126019091AB
:1005500027010197F3CFFC0101900020E9F73197C3
:10056000AF01481B590BBC0181E391E00C94710170
:10057000E82FF0E0EC54FF4FE491E43031F138F42F
:10058000E230B9F0E330D9F060E00C94BA00E83022
:1005900041F1E93079F1E530B9F78091800080626E
:1005A0008093800089E190E090938B0080938A0093
:1005B000089584B5806884BD89E187BD089584B5B8
:1005C000806284BD89E188BD089580918000806843
:1005D0008093800089E190E0909389008093880067
:1005E00008958091B00080688093B00089E1809385
:1005F000B30008958091B00080628093B00089E1DB
:100600008093B40008958F929F92AF92BF92CF9241
:10061000DF92EF92FF920F931F93CF93DF93CDB7AB
:10062000DEB7A1970FB6F894DEBF0FBECDBF6C0149
:10063000990FEE08FF08F7FE47C06DE281E391E0F5
:100640000E9411028C0122273327A9012C193D0990
:100650004E095F0919A2CE0181967C019AE0892E8C
:10066000912CA12CB12CCA01B901A50194010E94C1
:100670007805605DF70162937F0121153105410521
:10068000510589F790E080E0309719F0CF010E9482
:10069000AB02080F191F86E191E00E94AB02800FA8
:1006A000911FA1960FB6F894DEBF0FBECDBFDF91AC
:1006B000CF911F910F91FF90EF90DF90CF90BF905F
:1006C000AF909F908F900895A701960119A28E0177
:1006D0000F5D1F4F8AE0C82ED12CE12CF12CCA01EE
:1006E000B901A70196010E947805605DF801629347
:1006F0008F01211531054105510589F7309729F002
:10070000CF010E94AB028C01C6CF10E000E0C3CF46
:100710001F920F920FB60F9211242F933F938F9336
:100720009F93AF93BF938091290190912A01A0914B
:100730002B01B0912C013091280123E0230F2D379C
:1007400068F126E8230F0296A11DB11D2093280110
:100750008093290190932A01A0932B01B0932C013F
:1007600080912D0190912E01A0912F01B091300127
:100770000196A11DB11D80932D0190932E01A09390
:100780002F01B0933001BF91AF919F918F913F9115
:100790002F910F900FBE0F901F9018950196A11DDD
:1007A000B11DD4CF1F920F920FB60F9211242F9329
:1007B0003F934F935F936F937F938F939F93AF93E9
:1007C000BF93EF93FF93E0910201F091030109952C
:1007D000FF91EF91BF91AF919F918F917F916F9119
:1007E0005F914F913F912F910F900FBE0F901F90EF
:1007F00018951F920F920FB60F9211242F933F93CB
:100800004F935F936F937F938F939F93AF93BF9318
:10081000EF93FF93E0910001F09101010995FF91A1
:10082000EF91BF91AF919F918F917F916F915F9168
:100830004F913F912F910F900FBE0F901F901895E1
:100840001F920F920FB60F9211242F933F934F9345
:100850005F936F937F938F939F93AF93BF93EF9328
:10086000FF9381E391E00E94EF01FF91EF91BF912F
:10087000AF919F918F917F916F915F914F913F9138
:100880002F910F900FBE0F901F9018951F920F92EF
:100890000FB60F9211242F938F939F93EF93FF9393
:1008A000E0914101F09142018081E0914701F09196
:1008B000480182FD1BC0908180914A018F5F8F7338
:1008C00020914B01821741F0E0914A01F0E0EF5C8A
:1008D000FE4F958F80934A01FF91EF919F918F91E9
:1008E0002F910F900FBE0F901F9018958081F4CF1D
:1008F000789484B5836084BD85B5836085BD80911F
:100900006E00816080936E0092E0909381008091F0
:10091000810081608093810080918000816080935C
:1009200080008091B10084608093B1008091B0001C
:1009300081608093B00087E880937A001092C100B4
:10094000E0914101F09142019083E0913D01F091ED
:100950003E011082E0913F01F091400180E18083EF
:1009600010924901E0914501F091460186E08083B3
:10097000E0914301F0914401808188698083E09196
:100980004301F091440180818F7D808389E191E072
:100990000E94AB0286E191E00E94AB0260E082E03F
:1009A0000E94E80060E083E00E94E8008EE792E0A9
:1009B000909301018093000180916900836080938E
:1009C0006900E89A61E085E00E94E80061E089E062
:1009D0000E94E80061E088E00E94E80000E010E08A
:1009E0008FB7F894C0912601D09127018FBF61E0A5
:1009F00085E00E94E80085E00E94B80261E089E09D
:100A00000E94BA0060E088E00E94BA0068EC70E0E2
:100A100080E090E00E943E01CE010E94030361E06D
:100A200085E00E94E80085E00E94B80260E089E06D
:100A30000E94BA0061E088E00E94BA0068EC70E0B1
:100A400080E090E00E943E01CE010E94030361E03D
:100A500085E00E94E80085E00E94B80260E089E03D
:100A60000E94BA0060E088E00E94BA0064E170E091
:100A700080E090E00E943E01CE010E940303011538
:100A8000110509F4ADCF0E94DB01882309F4A8CF3A
:100A90000E940000A5CFE1E3F1E01382128288EE0C
:100AA00093E0A0E0B0E084839583A683B78388E0D9
:100AB00091E09183808385EC90E09587848784EC36
:100AC00090E09787868780EC90E0918B808B81EC1B
:100AD00090E0938B828B82EC90E0958B848B86ECFC
:100AE00090E0978B868B118E128E138E148E089544
:100AF000A1E21A2EAA1BBB1BFD010DC0AA1FBB1F22
:100B0000EE1FFF1FA217B307E407F50720F0A21B93
:100B1000B30BE40BF50B661F771F881F991F1A9400
:100B200069F760957095809590959B01AC01BD012A
:100B3000CF010895EE0FFF1F0590F491E02D099469
:040B4000F894FFCF57
:100B44007001000000000000110271019E015E02AC
:100B5400CF01AD01C1010D0A007372635C6D61695F
:060B64006E2E63707000AC
:00000001FF
